:020000040800F2
:1000000000000120B12F0008452B0008472B0008F5
:10001000492B00084B2B00084D2B00080000000066
:100020000000000000000000000000004F2B00084E
:10003000512B000800000000532B0008552B00082E
:1000400001300008013000080130000801300008CC
:1000500001300008013000080130000801300008BC
:1000600001300008013000080130000801300008AC
:10007000013000080130000801300008013000089C
:1000800001300008013000080130000800000000C5
:100090000000000000000000000000000130000827
:1000A000013000080130000801300008013000086C
:1000B00001300008013000085D2B00080130000805
:1000C000013000080130000801300008013000084C
:1000D0000130000801300008013000080000000075
:1000E0000130000801300008013000080000000065
:1000F00000000000000000000000000001300008C7
:100100000000000001300008013000080130000844
:1001100000000000000000000000000000000000DF
:100120006D2B000801300008013000080130000884
:100130000130000800000000000000000000000086
:100140000000000000000000000000007D2B0008FF
:1001500001300008013000080130000801300008BB
:10016000013000080130000800000000000000001D
:10017000000000000000000000000000000000007F
:100180000000000001300008000000000000000036
:040190000130000832
:1001C00010B5054C237833B9044B13B10448AFF391
:1001D00000800123237010BDF00C002000000000FF
:1001E000F871010808B5034B1BB103490348AFF38D
:1001F000008008BD00000000F40C0020F871010828
:1002000081F0004102E000BF83F0004330B54FEAC7
:1002100041044FEA430594EA050F08BF90EA020F34
:100220001FBF54EA000C55EA020C7FEA645C7FEAC7
:10023000655C00F0E2804FEA5454D4EB5555B8BFEA
:100240006D420CDD2C4480EA020281EA030382EA5B
:10025000000083EA010180EA020281EA0303362DED
:1002600088BF30BD11F0004F4FEA01314FF4801CC0
:100270004CEA113102D0404261EB410113F0004FD2
:100280004FEA03334CEA133302D0524263EB430389
:1002900094EA050F00F0A780A4F10104D5F1200E27
:1002A0000DDB02FA0EFC22FA05F2801841F1000182
:1002B00003FA0EF2801843FA05F359410EE0A5F156
:1002C00020050EF1200E012A03FA0EFC28BF4CF087
:1002D000020C43FA05F3C01851EBE37101F000453D
:1002E00007D54FF0000EDCF1000C7EEB00006EEB4A
:1002F0000101B1F5801F1BD3B1F5001F0CD34908D4
:100300005FEA30004FEA3C0C04F101044FEA44522A
:1003100012F5800F80F09A80BCF1004F08BF5FEAB1
:10032000500C50F1000041EB045141EA050130BD91
:100330005FEA4C0C404141EB0101013C28BFB1F5A3
:10034000801FE9D291F0000F04BF01460020B1FAEE
:1003500081F308BF2033A3F10B03B3F120020CDAC1
:100360000C3208DD02F1140CC2F10C0201FA0CF09F
:1003700021FA02F10CE002F11402D8BFC2F1200C04
:1003800001FA02F120FA0CFCDCBF41EA0C019040BA
:10039000E41AA2BF01EB0451294330BD6FEA040403
:1003A0001F3C1CDA0C340EDC04F11404C4F12002EE
:1003B00020FA04F001FA02F340EA030021FA04F300
:1003C00045EA030130BDC4F10C04C4F1200220FA57
:1003D00002F001FA04F340EA0300294630BD21FA95
:1003E00004F0294630BD94F0000F83F4801306BF5B
:1003F00081F480110134013D4EE77FEA645C18BF4F
:100400007FEA655C29D094EA050F08BF90EA020FE5
:1004100005D054EA000C04BF1946104630BD91EADD
:10042000030F1EBF0021002030BD5FEA545C05D1E0
:100430004000494128BF41F0004130BD14F580041F
:100440003CBF01F5801130BD01F0004545F0FE4193
:1004500041F470014FF0000030BD7FEA645C1ABFC8
:10046000194610467FEA655C1CBF0B46024650EAFF
:10047000013406BF52EA033591EA030F41F400212B
:1004800030BD00BF90F0000F04BF0021704730B5B1
:100490004FF4806404F132044FF000054FF0000186
:1004A00050E700BF90F0000F04BF0021704730B547
:1004B0004FF4806404F1320410F0004548BF40421C
:1004C0004FF000013EE700BF42004FEAE2014FEA71
:1004D00031014FEA02701FBF12F07F4393F07F4F4C
:1004E00081F06051704732F07F4208BF704793F04F
:1004F0007F4F04BF41F40021704730B54FF4607462
:1005000001F0004521F000411CE700BF50EA010264
:1005100008BF704730B54FF000050AE050EA01020D
:1005200008BF704730B511F0004502D5404261EB7D
:1005300041014FF4806404F132045FEA915C3FF4BE
:10054000D8AE4FF003025FEADC0C18BF03325FEA5B
:10055000DC0C18BF033202EBDC02C2F1200300FA0C
:1005600003FC20FA02F001FA03FE40EA0E0021FA31
:1005700002F11444BDE600BF70B54FF0FF0C4CF41F
:10058000E06C1CEA11541DBF1CEA135594EA0C0FD1
:1005900095EA0C0F00F0DEF82C4481EA030621EA0C
:1005A0004C5123EA4C5350EA013518BF52EA033547
:1005B00041F4801143F4801338D0A0FB02CE4FF0F9
:1005C0000005E1FB02E506F00042E0FB03E54FF029
:1005D0000006E1FB03569CF0000F18BF4EF0010E21
:1005E000A4F1FF04B6F5007F64F5407404D25FEA1D
:1005F0004E0E6D4146EB060642EAC62141EA5551D0
:100600004FEAC52040EA5E504FEACE2EB4F1FD0C11
:1006100088BFBCF5E06F1ED8BEF1004F08BF5FEA8F
:10062000500E50F1000041EB045170BD06F0004641
:1006300046EA010140EA020081EA0301B4EB5C04EE
:10064000C2BFD4EB0C0541EA045170BD41F48011E6
:100650004FF0000E013C00F3AB8014F1360FDEBF0B
:10066000002001F0004170BDC4F10004203C35DAE7
:100670000C341BDC04F11404C4F1200500FA05F36A
:1006800020FA04F001FA05F240EA020001F000420B
:1006900021F0004110EBD37021FA04F642EB060181
:1006A0005EEA430E08BF20EAD37070BDC4F10C04AB
:1006B000C4F1200500FA04F320FA05F001FA04F26F
:1006C00040EA020001F0004110EBD37041F100015B
:1006D0005EEA430E08BF20EAD37070BDC4F1200566
:1006E00000FA05F24EEA020E20FA04F301FA05F2CE
:1006F00043EA020321FA04F001F0004121FA04F276
:1007000020EA020000EBD3705EEA430E08BF20EA45
:10071000D37070BD94F0000F0FD101F0004640007F
:1007200041EB010111F4801F08BF013CF7D041EA01
:10073000060195F0000F18BF704703F00046520005
:1007400043EB030313F4801F08BF013DF7D043EAD6
:100750000603704794EA0C0F0CEA135518BF95EA8C
:100760000C0F0CD050EA410618BF52EA4306D1D113
:1007700081EA030101F000414FF0000070BD50EA32
:10078000410606BF1046194652EA430619D094EABC
:100790000C0F02D150EA013613D195EA0C0F05D1A6
:1007A00052EA03361CBF104619460AD181EA0301FA
:1007B00001F0004141F0FE4141F470014FF00000B2
:1007C00070BD41F0FE4141F4780170BD70B54FF04D
:1007D000FF0C4CF4E06C1CEA11541DBF1CEA1355CD
:1007E00094EA0C0F95EA0C0F00F0A7F8A4EB0504AF
:1007F00081EA030E52EA03354FEA013100F08880A6
:100800004FEA03334FF0805545EA131343EA12636E
:100810004FEA022245EA111545EA10654FEA002623
:100820000EF000419D4208BF964244F1FD0404F5DC
:10083000407402D25B084FEA3202B61A65EB030538
:100840005B084FEA32024FF480104FF4002CB6EBF5
:10085000020E75EB030E22BFB61A754640EA0C0075
:100860005B084FEA3202B6EB020E75EB030E22BFB5
:10087000B61A754640EA5C005B084FEA3202B6EBF6
:10088000020E75EB030E22BFB61A754640EA9C00B5
:100890005B084FEA3202B6EB020E75EB030E22BF85
:1008A000B61A754640EADC0055EA060E18D04FEA43
:1008B000051545EA16754FEA06164FEAC30343EAE3
:1008C00052734FEAC2025FEA1C1CC0D111F4801FB0
:1008D0000BD141EA00014FF000004FF0004CB6E7A9
:1008E00011F4801F04BF01430020B4F1FD0C88BF48
:1008F000BCF5E06F3FF6AFAEB5EB030C04BFB6EB53
:10090000020C5FEA500C50F1000041EB045170BD45
:100910000EF0004E4EEA113114EB5C04C2BFD4EB72
:100920000C0541EA045170BD41F480114FF0000EF6
:10093000013C90E645EA060E8DE60CEA135594EA72
:100940000C0F08BF95EA0C0F3FF43BAF94EA0C0F75
:100950000AD150EA01347FF434AF95EA0C0F7FF4EA
:1009600025AF104619462CE795EA0C0F06D152EA3E
:1009700003353FF4FDAE1046194622E750EA410622
:1009800018BF52EA43067FF4C5AE50EA41047FF433
:100990000DAF52EA43057FF4EBAE12E74FF0FF3C98
:1009A00006E000BF4FF0010C02E000BF4FF0010C69
:1009B0004DF804CD4FEA410C7FEA6C5C4FEA430CE2
:1009C00018BF7FEA6C5C1BD001B050EA410C0CBF31
:1009D00052EA430C91EA030F02BF90EA020F002093
:1009E000704710F1000F91EA030F58BF994208BFFA
:1009F00090422CBFD8176FEAE37040F001007047B7
:100A00004FEA410C7FEA6C5C02D150EA013C07D10D
:100A10004FEA430C7FEA6C5CD6D152EA033CD3D058
:100A20005DF8040B704700BF8446104662468C4652
:100A30001946634600E000BF01B5FFF7B7FF002885
:100A400048BF10F1000F01BD4DF808EDFFF7F4FFAE
:100A50000CBF012000205DF808FB00BF4DF808ED39
:100A6000FFF7EAFF34BF012000205DF808FB00BF5C
:100A70004DF808EDFFF7E0FF94BF012000205DF87E
:100A800008FB00BF4DF808EDFFF7CEFF94BF012033
:100A900000205DF808FB00BF4DF808EDFFF7C4FF2C
:100AA00034BF012000205DF808FB00BF4FEA410C75
:100AB0007FEA6C5C02D150EA013C0AD14FEA430C58
:100AC0007FEA6C5C02D152EA033C02D14FF0000095
:100AD00070474FF0010070474FEA410212F50012D3
:100AE00015D211D56FF47873B3EB625212D94FEA75
:100AF000C12343F0004343EA505311F0004F23FA5F
:100B000002F018BF404270474FF00000704750EAB3
:100B1000013005D111F0004008BF6FF00040704770
:100B20004FF00000704700BF4FEA4102B2F1E043CE
:100B300024BFB3F5001CDCF1FE5C0DD901F0004CC4
:100B40004FEAC0024CEA5070B2F1004F40EB830014
:100B500008BF20F00100704711F0804F21D113F140
:100B60003872BCBF01F00040704741F480114FEA79
:100B70005252C2F11802C2F1200C10FA0CF320FA02
:100B800002F018BF40F001004FEAC1234FEAD3231F
:100B900003FA0CFC40EA0C0023FA02F34FEA430389
:100BA000CCE77FEA625307D150EA01331EBF4FF012
:100BB000FE4040F44000704701F0004040F0FE402D
:100BC00040F40000704700BF53B94AB9002908BF7C
:100BD00000281CBF4FF0FF314FF0FF3001F0DEB8AE
:100BE000ADF1080C6DE904CE00F006F8DDF804E084
:100BF000DDE9022304B070472DE9F047089D044663
:100C00008E46002B4DD18A42944669D9B2FA82F2BF
:100C100052B101FA02F3C2F1200120FA01F10CFAFB
:100C200002FC41EA030E94404FEA1C48210CBEFB33
:100C3000F8F61FFA8CF708FB16E341EA034306FBBC
:100C400007F199420AD91CEB030306F1FF3080F04B
:100C50001F81994240F21C81023E63445B1AA4B298
:100C6000B3FBF8F008FB103344EA034400FB07F73A
:100C7000A7420AD91CEB040400F1FF3380F00A817B
:100C8000A74240F207816444023840EA0640E41B70
:100C900000261DB1D4400023C5E900433146BDE81C
:100CA000F0878B4209D9002D00F0EF800026C5E9BE
:100CB000000130463146BDE8F087B3FA83F6002ED6
:100CC0004AD18B4202D3824200F2F980841A61EB4E
:100CD000030301209E46002DE0D0C5E9004EDDE76C
:100CE00002B9FFDEB2FA82F2002A40F09280A1EB54
:100CF0000C014FEA1C471FFA8CFE0126200CB1FBA9
:100D0000F7F307FB131140EA01410EFB03F08842A1
:100D100008D91CEB010103F1FF3802D2884200F22E
:100D2000CB804346091AA4B2B1FBF7F007FB1011C0
:100D300044EA01440EFB00FEA64508D91CEB04045E
:100D400000F1FF3102D2A64500F2BB800846A4EBB9
:100D50000E0440EA03409CE7C6F12007B34022FAA4
:100D600007FC4CEA030C20FA07F401FA06F31C43D3
:100D7000F9404FEA1C4900FA06F3B1FBF9F8200CE0
:100D80001FFA8CFE09FB181140EA014108FB0EF026
:100D9000884202FA06F20BD91CEB010108F1FF3A76
:100DA00080F08880884240F28580A8F10208614482
:100DB000091AA4B2B1FBF9F009FB101144EA014190
:100DC00000FB0EFE8E4508D91CEB010100F1FF343B
:100DD0006CD28E456AD90238614440EA0840A0FBD3
:100DE0000294A1EB0E01A142C846A64656D353D0A9
:100DF0005DB1B3EB080261EB0E0101FA07F722FACD
:100E000006F3F1401F43C5E9007100263146BDE8F5
:100E1000F087C2F12003D8400CFA02FC21FA03F358
:100E2000914001434FEA1C471FFA8CFEB3FBF7F0D9
:100E300007FB10360B0C43EA064300FB0EF69E42FE
:100E400004FA02F408D91CEB030300F1FF382FD297
:100E50009E422DD9023863449B1B89B2B3FBF7F63F
:100E600007FB163341EA034106FB0EF38B4208D918
:100E70001CEB010106F1FF3816D28B4214D9023E59
:100E80006144C91A46EA004638E72E46284605E777
:100E90000646E3E61846F8E64B45A9D2B9EB020848
:100EA00064EB0C0E0138A3E74646EAE7204694E7D8
:100EB0004046D1E7D0467BE7023B614432E730460B
:100EC00009E76444023842E703685A004CBF43F024
:100ED000004323F000431844704700BF2DE9F84356
:100EE00029B34F1E044615463E464FF0000808EB56
:100EF000060101EBD171491004EBC1094846FFF727
:100F0000E3FF0346C80008308F42204409D0AB42BB
:100F100009D8FFF7D9FF0138A8420AD201F1010828
:100F2000E5E7AB4205D9884501D04E1EDFE74FF01B
:100F300000094846BDE8F883012807D0022807D0F9
:100F4000044B00280CBF1846002070470248704729
:100F500002487047111600081516000819160008F7
:100F600030B5234B83B004468D1E3BB301A9284600
:100F7000AFF30080E8B101992A46FFF7AFFF0146C1
:100F8000B8B1FFF7A1FF4B68A064012B2CD0002B58
:100F900001F1040024DBFFF797FF0023C4E91303EA
:100FA0000368002B11DBFFF78FFF2061002003B0E7
:100FB00030BD00230920236103B030BD0D4B0E4925
:100FC000C91AC91018460191D6E7C3F30360FFF7A9
:100FD000B3FF0028206114BF0020092003B030BDFA
:100FE0000123C4E91303DBE7002323610520DEE7C7
:100FF00000000000BC7F0108B48001080368DA0724
:1010000010B5044606D49B0700F1480009D500F04E
:101010005BFC2368590709D51A070ED5DB0613D5E3
:1010200010BD00F049FC23685907F5D404F1D00045
:1010300000F052FC23681A07F0D404F5A87000F001
:1010400053FC2368DB06EBD404F5E870BDE81040E0
:1010500000F08EBC092070470346006800B11844B8
:10106000704700BF704700BF70B504460E46316C34
:101070002046FFF775FF054688B9326C6261236927
:1010800032462146012098470828F0D0072806D18B
:101090002846316CFFF7E6FF301D00F001FC0EF032
:1010A00005FA00BF2DE9F0470D1DD0F80C80D0F8EF
:1010B0001890074614460FCDADF5727D0DF10C0C5E
:1010C000ACE80F000FCDACE80F000FCDACE80F007F
:1010D00095E80F0002AE4FF0000E8CE80F00C6F846
:1010E00000E020E0336C7B614FF4F07231467AA867
:1010F00000F056FE3B697AAA394650469847889BCD
:1011000073642146CDE9006905463B463A46012015
:10111000C0470446E0B94FF4F0727AA9304600F0B7
:101120003FFE082D1AD1316C3846FFF719FF0934FC
:101130005FFA84FA05460028D4D0B36B73643A464C
:10114000CDE900693B464AF010010120C04700B1DB
:10115000092528460DF5727DBDE8F087072DF7D1EA
:101160002046316CFFF77EFF03A800F099FB00BF1B
:10117000406C7047F0B5CB6B0B6401F1040C0E466C
:101180000546BCE80F00F9B001AC0FC4BCE80F0085
:101190000FC4BCE80F000FC49CE80F004FF0FF37EE
:1011A00084E80F00009706E02B696A4629469847B5
:1011B0000828044608D110992846FFF7D1FE0028D8
:1011C000F2D0092079B0F0BD6846FFF717FF062C72
:1011D000F7D131462846FFF747FF00BFC160D96B02
:1011E00082611964002219465CE700BF70B5C668C9
:1011F00043690B64AEB903690A4604460D460146CD
:1012000002209847072805D008280FD129462046F4
:10121000FFF72AFF3046296CFFF724FF281D00F056
:101220003FFB0122FFF73EFF0EF040F90EF03EF9C2
:10123000C2681AB1CA6B0A64002233E79AE700BF9A
:10124000704700BF836801460BB101201847704703
:10125000012912D009D873B90F2A0CD800EB8202E9
:1012600018465368009A136070470339012994BFE8
:10127000012002207047022070470846704700BFD7
:1012800000B585B00A46002303A900911946FFF76F
:10129000DFFF039805B05DF804FB00BF012912D001
:1012A00009D873B90F2A0CD800EB8200009A126893
:1012B0004260184670470339012994BF012002207B
:1012C0007047022070470846704700BF10B584B0D1
:1012D000002303AC039200940A461946FFF7DEFF91
:1012E00004B010BD70B5D36B136402F1040C054655
:1012F0000C46BCE80F00ADF50E7D0DF15C0EAEE8BE
:101300000F00BCE80F00AEE80F00BCE80F00AEE82D
:101310000F009CE80F004FF0FF368EE80F00169686
:1013200010E0FFF7D3FF214616A8A847034616AAE8
:101330006946082083B9049B9847052806460CD0C7
:10134000092809D026996846FFF70AFE03466A462F
:101350000C2116A8002BE4D0092616A8FFF74EFE94
:1013600030460DF50E7D70BD2DE9F04FCC6C89B087
:101370001E4654F8043B06940D46174600F0030839
:10138000002E79D01A0C1B0405938DF81D20022322
:10139000D2B204EB82048DF81C302B6DB8F1020F31
:1013A00008BFAC6B13F001030CD005A9384600F060
:1013B00079FB18B9082009B0BDE8F08F092009B001
:1013C000BDE8F08FD4F800A0BAF1000FEDD0019382
:1013D00000F008030293022E4AD0B4F800A0B4F83B
:1013E00002900434AB6C29F0010B0F2138469B446A
:1013F000FFF746FF834539D82AF001039B44834514
:1014000094BF002001204FEA490303F002030AF0D1
:10141000010A43EA0A03012B49D0022B32D0002BE8
:10142000CCD1B8F1000F02D0002840F0CD800434B8
:10143000D4F800A0BAF1000FCDD105A9384600F0CC
:1014400031FB0028BAD1019B002BB3D00F213846C5
:10145000FFF716FF0E2102463846FFF737FF3846E2
:101460006A4A0F21FFF732FF0720A8E70020CAE7EA
:10147000D4F804900834B5E71B0205930323ADF8B4
:101480001C308AE7236823F0004BB8F1000F45D1E8
:1014900028B1029A002A5CD0BBF1000F74D0002B57
:1014A00000DA04340BF1010B04EB8B04C0E7B8F154
:1014B000000F19D1B0B163682268991C4FEAD2724B
:1014C0003FF47CAF05F158010133049100F09080A6
:1014D000201DFFF7C1FD04AB01462846AFF3008095
:1014E00000285BD10834A3E70D213846D5F82090B9
:1014F000FFF7C6FE8145F5D1AB6A9C42F2D120468A
:10150000FFF7E2FC0F2102463846FFF7DFFE3846C0
:101510002A460021FFF7DAFE072050E70D21384662
:10152000D5F82090FFF7ACFE814501D02368B6E7DF
:10153000AB6A9C42FAD104230022C5E90B23E318CD
:10154000C5F828B06B632368002B59DB0123019396
:10155000A8E705F15803CDF80C8004F1040AB04661
:1015600091461E460EE050460496FFF775FD002298
:10157000014604AB284609F101090AF1040AAFF358
:101580000080E0B9D945EED10D213846FFF778FE4D
:10159000049BAC62C5E90803062010E781460D21D3
:1015A0003846FFF76DFEB9F1020F286225D12B46B0
:1015B000049A43F82C2F6B62AC620620FFE6464685
:1015C0002368DDF80C806AE72046FFF77DFC0434D1
:1015D0000246AC6328461446AFF3008000283FF46F
:1015E000EDAE384622460F21FFF770FE0720E6E6F3
:1015F0000D213846FFF744FE2862049B6B62DBE74F
:101600000BF1010004EB80007AE700BF000000004E
:101610000023A9E60123A7E60223A5E62DE9F0436E
:101620000646C3B015461C46042900F2BF80DFE819
:1016300001F09E57BD2D0300002C40F0B780102A0A
:1016400000F2B4800368D80600F1F98020AF384674
:1016500000F098F9B46B394600234FF0010C0CFAF6
:1016600003F22A42204603F1010303D050F8042B71
:101670000A600446042B01F10401F0D13846B4633A
:1016800000F076F9002043B0BDE8F083032C40F071
:101690008D8094B204EB1243102B4FEA124500F2F6
:1016A000858003681F0700F1D28020AF384600F024
:1016B0003DF9B26B07EBC50154B10B46D01A01EBF3
:1016C000C401E4001D5843F8045B8B42FAD1224464
:1016D0003846B26300F008F9002043B0BDE8F0835B
:1016E000012C4FEA124895B25CD0052C5ED108EB74
:1016F0000509B9F1200F59D8B8F10F0F79D9A946CA
:10170000002D40F08A80B36B6DB320AF4FF000091D
:1017100007EBC807043F03EBC50553F8041B47F864
:10172000041FAB42F9D1B9F1000F0FD06F4641460B
:10173000102938BF102107EBC101843903EBC9051B
:1017400053F8040B41F8040FAB42F9D1012C00F01F
:101750008680B8F10F0FB56347D9B9F1000F02D0F9
:10176000684600F0B9F8002043B0BDE8F083ECB95A
:10177000806B23461FFA82FC0124371D04FA03F212
:1017800012EA0C0F014604D051F8042B47F823202D
:1017900008460133102BF1D115F40055E3D1B063A5
:1017A000284604E008EB0503102B03D9022043B0C0
:1017B000BDE8F083B8F10F0FF8D83368DA0706D523
:1017C000304623F0030340F8483B00F079F820AF9F
:1017D000384600F075F8B36B002D97D11D460435DF
:1017E000B563384600F068F8BDE720A800F06CF853
:1017F000B3E7B9F1100F40D9A9F110093368D9073F
:1018000008D523F00103304643F0020340F8483B7B
:1018100000F05EF8B9F1000F32D033685A0720D4D7
:10182000B8F10F0F25D96F463846C8F1100500F002
:1018300057F8002DB36B7FF77AAF20AF68E723F03E
:101840001003336006F5E87000F09CF8FEE623F024
:101850000803036000F5A87000F068F825E720AFE2
:10186000BDE7304623F0040340F8D03B00F038F8E1
:10187000D6E720A800F02CF8D5E74FF00009BDE727
:10188000B8F10F0F3FF63FAF20AF384600F020F819
:10189000B36B002D7FF43AAF384600F015F862E7DD
:1018A00000F1340191E838009C46A6464CF8045DEE
:1018B00090E8FF0FE54600BD90EC210B704700BF9C
:1018C00080EC210B704700BF90EC200B704700BFED
:1018D00080EC200B704700BFD0EC200B704700BF9E
:1018E000C0EC200B704700BFF0EC0201F0EC0211DD
:1018F000F0EC0221F0EC0231F0EC0241F0EC02518C
:10190000F0EC0261F0EC0271F0EC0281F0EC02917B
:10191000F0EC02A1F0EC02B1F0EC02C1F0EC02D16B
:10192000F0EC02E1F0EC02F1704700BFE0EC0201E4
:10193000E0EC0211E0EC0221E0EC0231E0EC0241CB
:10194000E0EC0251E0EC0261E0EC0271E0EC0281BB
:10195000E0EC0291E0EC02A1E0EC02B1E0EC02C1AB
:10196000E0EC02D1E0EC02E1E0EC02F1704700BFF4
:10197000B0FC0181B0FC0191B0FC01A1B0FC01B14F
:10198000704700BFA0FC0181A0FC0191A0FC01A157
:10199000A0FC01B1704700BFEC4600B52DE9005036
:1019A0002DE9FF1F4FF000032DE90C0001A9FFF7FF
:1019B000E1FBDDF840E012B0704700BFEC4600B537
:1019C0002DE900502DE9FF1F4FF000032DE90C0019
:1019D00001A9FFF70BFCDDF840E012B0704700BF33
:1019E000EC4600B52DE900502DE9FF1F4FF0000334
:1019F0002DE90C0001A9FFF71BFCDDF840E012B057
:101A0000704700BFEC4600B52DE900502DE9FF1FDF
:101A10004FF000032DE90C0001ABFFF7DFFBDDF811
:101A200040E012B0704700BFEC4600B52DE9005011
:101A30002DE9FF1F4FF000032DE90C0001AAFFF76D
:101A400051FCDDF840E012B0704700BF027A034657
:101A50007AB9427AA2B14168013A10B44272086878
:101A600003220C1D1A7202025C60000E10BC1A6088
:101A700070470068013A1A7202021A60000E70473D
:101A8000B020704700B585B0002303AA0092194624
:101A90000C22FFF7DDFB039805B05DF804FB00BFE7
:101AA000F0E700BF2DE9F043054685B00E464FF044
:101AB00000083046FFF7CAFFB028044600F0BA809D
:101AC000070620D500F0F003802B4DD0902B36D0A8
:101AD000A02B60D0B02B74D0C02B00F08B8000F016
:101AE000F803D02B0BD100F007020132052342F49A
:101AF000002201212846FFF791FD0028D9D00920B6
:101B000005B0BDE8F0838300DBB21F1D0DF10C09A9
:101B100000231946CDF800900D222846FFF798FBC8
:101B2000039BCDF8009060064CBFDF1BFF1800231D
:101B30000D22194628460397FFF7B0FBB9E700F0DE
:101B40000D030D2BDBD003AF002300F00F0219466D
:101B500000972846FFF77CFB002300970D221946CB
:101B60002846FFF79BFBA4E73046FFF76FFF2402F0
:101B70002043B0F5004FC2D004010023A2B21946A1
:101B80002846FFF74BFD0028B9D114F4004F18BFC9
:101B90004FF001088DE7C24302F007034FF47F6264
:101BA0001A41010702F47F624FF0000348BF42F47C
:101BB000804219462846FFF731FD00283FF479AFEF
:101BC0009DE7B1283BD0B22800F09380B32841D0E4
:101BD00000F0FC03B42B92D000F007020132012385
:101BE00042F4002219462846FFF718FD00283FF46A
:101BF00060AF84E7C6284AD0C72854D000F0F80365
:101C0000C02B63D0C82868D0C9287FF478AF30468D
:101C1000FFF71CFF020300F00F0002F470220130F6
:101C20000243012105232846FFF7F8FC00283FF472
:101C300040AF64E7B8F1000F18D0002060E73046ED
:101C4000FFF704FF024600283FF459AF10F0F003FD
:101C5000C8D054E73046FFF7F9FE020300F00F0347
:101C6000013302F470221A430123BBE703AC43465D
:101C70000E22414600942846FFF7EAFA00944346B4
:101C80000F2241462846FFF709FB404638E7304619
:101C9000FFF7DCFE020300F00F03013302F47022B1
:101CA0001A4303239EE73046FFF7D0FE0246002882
:101CB0003FF425AF10F0F0037FF421AF0421284654
:101CC000FFF7ACFC00283FF4F4AE18E700F00F0279
:101CD0000132032342F4202284E73046FFF7B6FEA8
:101CE00000F0F00200F00F031032013343EA023239
:101CF00097E700230DF10C090D221946CDF800904D
:101D00002846FFF7A5FA3046FFF7A0FE02064FF07F
:101D100002040CD5039B00F07F00A0401844039000
:101D20003046FFF793FE030604F10704F2D4039B49
:101D3000CDF8009000F07F02A24003F501731A4431
:101D40000023039219460D222846FFF7A7FAB0E6B2
:101D500010B5C26C536884B04FF0030C08321C02FB
:101D600008461B0E01A9019402928DF80CC08DF853
:101D70000D30FFF797FE04B010BD00BF08B5FFF7A8
:101D80008FFE806C08BD00BF08B5FFF789FEC06CF0
:101D9000C379023300EB830008BD00BF704700BF6A
:101DA000844641EA000313F003036DD1403A41D366
:101DB00051F8043B40F8043B51F8043B40F8043B25
:101DC00051F8043B40F8043B51F8043B40F8043B15
:101DD00051F8043B40F8043B51F8043B40F8043B05
:101DE00051F8043B40F8043B51F8043B40F8043BF5
:101DF00051F8043B40F8043B51F8043B40F8043BE5
:101E000051F8043B40F8043B51F8043B40F8043BD4
:101E100051F8043B40F8043B51F8043B40F8043BC4
:101E200051F8043B40F8043B51F8043B40F8043BB4
:101E3000403ABDD2303211D351F8043B40F8043B54
:101E400051F8043B40F8043B51F8043B40F8043B94
:101E500051F8043B40F8043B103AEDD20C3205D364
:101E600051F8043B40F8043B043AF9D2043208D05C
:101E7000D2071CBF11F8013B00F8013B01D30B88CE
:101E800003806046704700BF082A13D38B078DD0AC
:101E900010F003038AD0C3F10403D21ADB071CBF7E
:101EA00011F8013B00F8013B80D331F8023B20F8E8
:101EB000023B7BE7043AD9D3013A11F8013B00F821
:101EC000013BF9D20B7803704B7843708B788370A9
:101ED00060467047000000000000000000000000A5
:101EE00001F0FF01102A2BDB10F0070F08D010F8CB
:101EF000013B013A8B422DD010F0070F42B3F6D1CF
:101F0000F0B441EA012141EA014122F007047FF0E7
:101F100000070023F0E80256083C85EA010586EA3E
:101F2000010685FA47F5A3FA87F586FA47F6A5FA7A
:101F300087F68EB9EED1F0BC01F0FF0102F0070286
:101F400032B110F8013B013A83EA010313B1F8D131
:101F50000020704701387047002D06BF3546033812
:101F6000073815F0010F07D1013015F4807F02BF4B
:101F7000013015F4C03F0130F0BC0138704700BF9C
:101F800090F800F06DE9024520F007016FF0000CB9
:101F900010F0070491F820F040F049804FF0000461
:101FA0006FF00700D1E9002391F840F000F108003C
:101FB00082FA4CF2A4FA8CF283FA4CF3A2FA8CF374
:101FC0004BBBD1E9022382FA4CF200F10800A4FADB
:101FD0008CF283FA4CF3A2FA8CF3E3B9D1E904232F
:101FE00082FA4CF200F10800A4FA8CF283FA4CF366
:101FF000A2FA8CF37BB9D1E9062301F1200182FA20
:102000004CF200F10800A4FA8CF283FA4CF3A2FA25
:102010008CF3002BC6D0002A04BF04301A4612BA33
:10202000B2FA82F2FDE8024500EBD2007047D1E936
:10203000002304F00305C4F100004FEAC50514F0C5
:10204000040F91F840F00CFA05F562EA05021CBF96
:1020500063EA050362464FF00004A9E700B585B0C6
:10206000002300930193029303931548154A0260DD
:102070004FF480324260836001220261027680F870
:102080002030C36210498162C360C26180F8302091
:10209000426101F0B7F868B902230093012301936C
:1020A000062302936946064801F0C4F928B905B031
:1020B0005DF804FB00F03EFAEEE700F03BFAF6E7CD
:1020C0000C0D0020002001400100000F30B589B048
:1020D000002303930493059306930793026803F187
:1020E000804303F590339A4201D009B030BD0446D5
:1020F0000025019503F58C335A6C42F480725A64C2
:102100005A6C02F480720192019A02951A6B42F0A5
:1021100001021A631B6B03F001030293029B042369
:1021200003930323049303A9104801F0C5FC10484E
:10213000104B036045608560C5604FF480630361A8
:102140004FF4006343614FF4005383614FF4807395
:10215000C3610562456201F025FB18B9044BA36316
:102160009C63C2E700F0E6F9F8E700BF0000024018
:10217000540D00201064024000B583B0002101918D
:10218000094B1A6B42F480021A631B6B03F4800341
:102190000193019B0A46382001F02AFA382001F009
:1021A0005FFA03B05DF804FB00380240F0B58BB075
:1021B00000240594069407940894099401942E4BE6
:1021C0001A6B42F004021A631A6B02F004020192C5
:1021D000019A02941A6B42F080021A631A6B02F0A1
:1021E00080020292029A03941A6B42F001021A636F
:1021F0001A6B02F001020392039A04941A6B42F0E4
:1022000002021A631B6B03F002030493049B1B4F2F
:1022100022464FF48C71384601F02BFD184E2246B1
:102220002321304601F025FD4FF400530593069419
:102230000125079505A9134801F03EFC4FF48C7366
:10224000059306950794089405A9384601F034FCD7
:102250002323059306950794089405A9304601F0B9
:102260002BFC4FF4405305930694079505A930467F
:1022700001F022FC0BB0F0BD00380240000002402B
:10228000000402400008024008B50B480B4B0360F5
:102290000B4B436000238360C3604FF480420261B4
:1022A00043618361C361036201F03EFF00B908BD71
:1022B00000F040F9FBE700BFB40D002000540040DF
:1022C000801A060030B589B0002303930493059368
:1022D000069307930268154B9A4201D009B030BDAE
:1022E00000250195124C236B43F002032363236BFB
:1022F00003F002030193019BC02303931223049371
:1023000001230593032306930423079303A9094894
:1023100001F0D2FB0295236C43F400132364236C79
:1023200003F400130293029BD8E700BF005400405F
:1023300000380240000402400268684B1B689A4261
:1023400000D0704710B54FF080435A6A644B1A6052
:102350005B68D11A00296FDDD31A18BF0123002B47
:1023600073D000296EDD01215D4B99605A605D4B91
:102370001B78022B00F08C80032B00F0A380012B34
:1023800067D0594C4FF48051204601F06BFCB0FAF5
:1023900080F04009554B18704FF40051204601F071
:1023A00061FCB0FA80F04009514B1870514BD3EDED
:1023B000007AF8EE677A9FED507A67EE877A9FEDA4
:1023C0004F7A67EE877ADFED4E6A87EEA67ADFED09
:1023D0004D7A67EE277A4C4BC3ED007A17EE900AE0
:1023E000FEF772F802460B46484C494904F59C70CA
:1023F0000DF018FC474B1868FEF766F802460B46CE
:10240000454904F5AB700DF00DFC444B1868FEF720
:102410005BF802460B46424904F5BA700DF002FC27
:10242000404B1868FEF750F802460B463E4904F54B
:10243000C9700DF0F7FB10BD9B1A022BD4BF00230F
:1024400001238CE74FF0FF318EE7254B00229A6085
:102450008DE7234B9B682D4AD2F8B8100B44C2F885
:10246000B830012B03DD13460022C3F8B820274BF8
:10247000D3F8B830002B06DB00232C4A1370234A14
:10248000C2F834317DE7214B0122C3F8B820F3E7CD
:10249000134B9B681D4A916F0B449367032B02DD1E
:1024A000134600229A67194B9B6F002B06DB002313
:1024B0001E4A1370154AC2F8343162E7134B0322E7
:1024C0009A67F4E74FF40051194801F0CBFBB0FADA
:1024D00080F04009154B187053E700BFE030002032
:1024E0009C2F002000000020000402401411002056
:1024F00015110020A82F00203333534000008039ED
:102500000000204300801D44080E00200800002029
:10251000187201081C1100202072010818110020F7
:102520002C72010810110020387201080C110020D3
:102530000008024072B6FEE700B595B030220021D7
:1025400008A80DF0A5FA00230393049305930693BE
:1025500007930193214A116C41F080511164126C70
:1025600002F080520192019A02931D4A136823F4EB
:10257000404343F400431360136803F44043029361
:10258000029B012308934FF48033099302230E9397
:102590004FF480030F93192310934FF4A8731193F2
:1025A000042312930723139308A802F07BFE80B93B
:1025B0000F23039302210491002305934FF48052CB
:1025C0000692079303A803F0B5F820B915B05DF89B
:1025D00004FBFFF7AFFFFFF7ADFF00BF003802407D
:1025E0000070004080B584B000F032FDFFF7A4FF1A
:1025F000FFF7DCFDFFF7C0FDFFF746FE00F0DEF958
:1026000000F000FA00F080FCFFF728FD00F02AFB44
:1026100000F024FC00F056FB04F06AFF08F0F0FE26
:1026200000219D4803F094FF002008F0E3FE9B4842
:102630000BF01CFB9A4803F0BAFC3C21994803F0CC
:10264000A5FF01229849994800F008FE08F016FD00
:10265000974C214604200AF03FFD4FF4FA7000F039
:1026600023FD944920460AF061FD642008F0C2FE73
:10267000914B9B6F914AD05C0BF0BCFA6FE0904A93
:102680001378013B137078E08A4989480AF04EFDBF
:10269000012301938B4B00938B4B4FF44072854980
:1026A0008A480AF077FD0028EED1894B1A68894BD9
:1026B0001A60894B1B781BB17F4B0122C3F8342170
:1026C000864B002002904FF6FF7201925A680092EA
:1026D0001B68834A014608F023FE794B1B78022BC6
:1026E00000F09C80032B00F00781012B5ED07B4C17
:1026F000714D002602961F2301936368009323689F
:1027000005F5AB72E521304608F00AFE02964FF659
:10271000E073019363680093236805F5C972E521AE
:102720006E2008F0FDFD02964FF478430193636834
:102730000093236805F5BA72E521E62008F0F0FD64
:10274000D5F8B830002B40F00F81AB6F5B4AD15CFD
:102750005E480BF015F92021624801F090FA624CB6
:10276000624B1B7800932378554A12786049614880
:102770000BF000FD2378012B81D05C4B1B781BB143
:102780004F4A1378013313704D4B1B7813B94C4BE0
:1027900003221A704A4B1B78032B02D9484B0122A3
:1027A0001A70444942480AF0C1FC71E7424CD4F81F
:1027B000B820C2EB0212520078322244474E002564
:1027C00002954FF4784301937368009333680432A1
:1027D0002946372008F0A4FDA26FC2EB0212029531
:1027E0004FF6FF77019773680093336804EB42025A
:1027F0002946872008F094FDD4F83421C2EB021258
:102800005200B832224402950197736800933368EE
:1028100004322946E62008F083FD68E7264CD4F808
:10282000B820C2EB02125200783222442B4E00250F
:1028300002954FF6FF77019773680093336804326F
:102840002946372008F06CFDA26FC2EB02120295F8
:102850004FF47843019373680093336804EB4202AA
:102860002946872008F05CFDD4F83421C2EB02121F
:102870005200B8322244029501977368009333687E
:1028800004322946E62008F04BFDA36F0B4AD05CCA
:102890000BF0B0F92BE700BFA030002080470020EC
:1028A000E030002060300020A82F00200C0D002018
:1028B000201100209C23002008000020040000209C
:1028C000000000201C110020181100200C0E002018
:1028D0009C290020101100200C110020C4020020AF
:1028E00040010020000402401411002015110020B6
:1028F00048720108203100202B4CD4F8B820C2EBDC
:102900000212520078322244284E002502954FF6DA
:10291000FF770197736800933368043229463720A4
:1029200008F0FEFCA26FC2EB0212029501977368D9
:102930000093336804EB42022946872008F0F0FC3C
:10294000D4F83421C2EB02125200B832224402956C
:102950004FF4784301937368009333680432294637
:10296000E62008F0DDFCC2E6114B1B7893B10E4B5C
:102970009B6F01220F49C95C0F480BF035FA20B15B
:10298000094B0322C3F83421E5E6074B0222C3F8C2
:102990003421E0E6044B9B6F00220649C95C0648DF
:1029A0000BF022FAD7E600BF08000020C402002086
:1029B0000C110020040000200C0E002008B50F4868
:1029C0000F4B03604FF4827343604FF40043836006
:1029D0000023C3600222026143614FF400728261EE
:1029E000C3610362436283620A23C36202F0F8FF99
:1029F00000B908BDFFF79EFDFBE700BFAC2F00202C
:102A00000030014008B50D480D4B03604FF4827350
:102A1000436000238360C360036143614FF400722D
:102A20008261C3610362436283620A23C36202F06C
:102A3000D7FF00B908BDFFF77DFDFBE7043000209C
:102A40000038004000B58BB0002305930693079330
:102A5000089309930368284A934205D0274A934272
:102A600025D00BB05DF804FB00210191244B5A6C7A
:102A700042F480525A645A6C02F480520192019AD4
:102A800002911A6B42F001021A631B6B03F00103FF
:102A90000293029BA023059302230693032308932A
:102AA0000523099305A9174801F006F8D9E7002185
:102AB0000391134B1A6C42F480421A641A6C02F4AC
:102AC00080420392039A04911A6B42F002021A6345
:102AD0001B6B03F002030493049B4FF444430593E0
:102AE00002230693032308930523099305A90648A7
:102AF00000F0E2FFB5E700BF0030014000380040C1
:102B000000380240000002400004024082B0002170
:102B100000910B4B5A6C42F480425A645A6C02F496
:102B200080420092009A01911A6C42F080521A641D
:102B30001B6C03F080530193019B02B0704700BFF0
:102B400000380240FEE7FEE7FEE7FEE7FEE77047DB
:102B50007047704708B500F095FA08BD08B50248FF
:102B600003F03BFA08BD00BFE030002008B5024882
:102B700000F0B4FE08BD00BF540D002008B50248A7
:102B800001F096FF08BD00BF70360020012070479D
:102B900008B50CF093FC162303604FF0FF3008BD1E
:102BA00008B54FF0FF31FFF7F3FFFEE770B50C46B5
:102BB0001646002506E0AFF30080214601F8010B20
:102BC00001350C46B542F6DB304670BD70B50C469B
:102BD0001646002504E014F8010BAFF30080013520
:102BE000B542F8DB304670BD4FF0FF3070474FF410
:102BF00000534B6000207047012070470020704751
:102C000010B503460C4A0D490D48006840B10C4808
:102C100000680344521A934206D8094A136010BD53
:102C20000748084C0460F2E70CF048FC0C230360F2
:102C30004FF0FF30F3E700BF00000120001200005A
:102C40005C300020786C0020054BD3F8882042F4DB
:102C50007002C3F888204FF000629A60704700BF8E
:102C600000ED00E000B58DB02422002103A80CF097
:102C70000FFF00230193029311484FF0804202603E
:102C8000436083604FF0FF32C260036183610123C0
:102C900003930593099303A903F0DEFA50B90023C7
:102CA0000193029301A9064803F092FC28B90DB0E4
:102CB0005DF804FBFFF73EFCF1E7FFF73BFCF6E7AE
:102CC0006030002000B587B0002302930393049383
:102CD0000593009301931548154A02605322426000
:102CE000836042F20F72C2600361836103F080FA75
:102CF00090B94FF48053029302A90C4803F0ABFB48
:102D000068B90023009301936946084803F060FC0A
:102D100040B907B05DF804FBFFF70CFCE9E7FFF7EB
:102D200009FCEEE7FFF706FCF3E700BFE030002008
:102D30000008004000B589B0002303930493059375
:102D4000069307930368B3F1804F02D009B05DF892
:102D500004FB0021019103F50E331A6C42F00102CD
:102D60001A641A6C02F001020192019A02911A6B24
:102D700042F001021A631B6B03F001030293029BF2
:102D800003230393022304930123079303A9024817
:102D900000F092FEDAE700BF0000024000B583B009
:102DA0000368154A934205D0144A93420FD003B0EA
:102DB0005DF804FB00230093114B1A6C42F00202F1
:102DC0001A641B6C03F002030093009BEFE70021E1
:102DD00001910B4B1A6C42F004021A641B6C03F055
:102DE00004030193019B0A461E2000F001FC1E20F3
:102DF00000F036FCDBE700BF0004004000080040A4
:102E00000038024000B587B000230193029303937A
:102E10000493059302680E4B9A4202D007B05DF806
:102E200004FB002300930B4B1A6B42F001021A6360
:102E30001B6B03F001030093009B402301930223CB
:102E40000293059301A9044800F036FEE6E700BFAF
:102E500000040040003802400000024000B58FB07E
:102E600000230A930B930C930D93089309930193FA
:102E70000293039304930593069307932048214AF2
:102E800002605322426083606422C26003618361F6
:102E900003F0AEF920BB4FF480530A930AA91848F7
:102EA00003F0D9FAF8B9164803F0BCF9F0B90023D9
:102EB0000893099308A9124803F08AFBC8B9602354
:102EC0000193002202920392059201A90C4803F09B
:102ED00047FA88B90A48FFF795FF0FB05DF804FB81
:102EE000FFF728FBD7E7FFF725FBDCE7FFF722FB1F
:102EF000DDE7FFF71FFBE2E7FFF71CFBEAE700BF98
:102F0000A03000200004004008B50A480A4B0360C6
:102F10004FF4E133436000238360C36003610C22FC
:102F200042618361C36103F0B3FC00B908BDFFF7E0
:102F300001FBFBE7203100200010014000B589B003
:102F4000002303930493059306930793026803F108
:102F5000804303F588339A4202D009B05DF804FB40
:102F60000021019103F594335A6C42F010025A6427
:102F70005A6C02F010020192019A02911A6B42F00F
:102F800001021A631B6B03F001030293029B4FF4CF
:102F9000C063039302230493032306930723079339
:102FA00003A9024800F088FDD7E700BF00000240F7
:102FB000DFF834D0002103E00C4B5B584350043160
:102FC0000B480C4B42189A42F6D30B4A02E00023FE
:102FD00042F8043B094B9A42F9D3FFF735FE0CF057
:102FE00073FAFFF7FFFA704700000120C080010864
:102FF00000000020F00C0020F00C0020746C002079
:10300000FEE7000010B504460E4B18784FF47A73B3
:10301000B3FBF0F30C4A1068B0FBF3F000F02EFBAA
:1030200068B90F2C01D901200AE0002221464FF097
:10303000FF3000F0DDFA054B1C60002000E00120AD
:1030400010BD00BFBC010020B8010020C00100205D
:1030500008B50B4B1A6842F400721A601A6842F401
:1030600080621A601A6842F480721A60032000F0CD
:10307000ADFA0020FFF7C6FFFFF748FD002008BDAE
:10308000003C0240034A1168034B1B780B44136059
:10309000704700BF60310020BC010020014B186860
:1030A000704700BF6031002038B50446FFF7F6FFD7
:1030B0000546B4F1FF3F02D0044B1B781C44FFF7D8
:1030C000EDFF401BA042FAD338BD00BFBC01002079
:1030D0004A4B5A6822F440325A605A6841680A439F
:1030E0005A600268536823F480735360026853681F
:1030F000016943EA012353600268536823F0407377
:1031000053600268536881680B4353600268936898
:1031100023F40063936002689368C1680B43936073
:10312000826A374B9A4257D00268936823F07063E3
:10313000936002689368816A0B43936002689368A6
:1031400023F04053936002689368C16A0B43936015
:103150000268936823F00203936002689368017E1B
:1031600043EA4103936090F82030002B3FD002687F
:10317000536843F4006353600268536823F4604368
:10318000536001684B68426A013A43EA42334B603C
:103190000268D36A23F47003D3620168CB6AC26900
:1031A000013A43EA0253CB620268936823F4007346
:1031B00093600268936890F8301043EA412393606B
:1031C0000268936823F4806393600268936841699E
:1031D00043EA8123936070470268936823F0706329
:1031E00093600268936823F040539360B0E70268ED
:1031F000536823F400635360CAE700BF0023014013
:103200000100000F38B310B50446036C43B1236CC2
:1032100013F0100F0BD00120002384F83C3010BDB8
:10322000FEF754FF0023636484F83C30EFE7236C1F
:1032300023F4885323F0020343F00203236420465F
:10324000FFF746FF00206064236C23F0030343F084
:1032500001032364E0E701207047000030B583B02C
:1032600013460022019290F83C20012A7FD00546A7
:10327000012280F83C200268906810F0010F13D101
:10328000906840F0010090603D4A10683D4AA2FB02
:103290000020800C00EB4000019002E0019C013C0A
:1032A000019401980028F9D12A68906810F0010F64
:1032B0005FD0286C20F4E06020F0010040F48070C2
:1032C0002864526812F4806F05D02A6C22F44052B0
:1032D00042F480522A642A6C12F4805F34D06A6C03
:1032E00022F006026A64002285F83C20AA6B264878
:1032F000D063AA6B25481064AA6B2548D0642A685D
:103300006FF0220010602868426842F080624260DC
:103310002868826842F48072826028680A4600F158
:103320004C01A86B00F0A4FA1A4B5B6813F01F0F56
:103330000DD12B689A6812F0405F1DD19A6842F057
:1033400080429A60002015E000226A64CBE72B6877
:10335000114A934201D000200CE09A6812F0405FBD
:103360000CD19A6842F080429A60002002E002206C
:1033700000E0002003B030BD0020FBE70020F9E7AB
:10338000B801002083DE1B43C3330008A1330008CB
:10339000AD33000800230140002001407047704712
:1033A00008B5806BFFF7FBFF08BD704708B5806B61
:1033B00040230364436C43F004034364FFF7F5FFC9
:1033C00008BD08B50346806B026C12F0500F25D182
:1033D000036C43F40073036403689A6812F0405F5F
:1033E00019D1027EBAB9DA6A12F4700F03D09A6862
:1033F00012F4806F0FD15A6822F020025A60036CD9
:1034000023F480730364036C13F4805F03D1036CB3
:1034100043F001030364FFF7C1FF08BD026C12F023
:10342000100F04D1826BD26C18469047F5E7FFF776
:10343000BCFFF2E730B482B00023019390F83C3037
:10344000012B00F0BB80012380F83C300B68092B76
:1034500041D90468E2689BB203EB43031E3B4FF083
:10346000070C0CFA03F322EA0303E3600468E26842
:103470000B8803EB43031E3B8D6805FA03F31343EC
:10348000E3604B68062B3DD80468626B03EB830353
:10349000053B4FF01F0C0CFA03F322EA03036363AE
:1034A0000468626B4B6803EB8303053BB1F800C013
:1034B0000CFA03F3134363630268414B9A4251D001
:1034C00002683F4B9A4256D0002380F83C301846A1
:1034D00002B030BC7047046822699BB203EB43031F
:1034E0004FF0070C0CFA03F322EA0303236104688C
:1034F00022690B8803EB43038D6805FA03F313433A
:103500002361BEE70C2B16D805682A6B03EB8303F7
:10351000233B1F2404FA03F322EA03032B63056809
:103520002A6B4B6803EB8303233B0C8804FA03F3F9
:1035300013432B63C0E70568EA6A03EB8303413B4F
:103540001F2404FA03F322EA0303EB620568EA6A24
:103550004B6803EB8303413B0C8804FA03F31343EA
:10356000EB62A9E70B68122BAAD1164A536843F401
:1035700080035360A4E70B68103B012BA4D8114AC9
:10358000536843F4000353600B68102B9CD10E4B1F
:103590001B6802F1467202F52E3202F28332A2FB60
:1035A00003239B0C03EB83035B00019302E0019B6D
:1035B000013B0193019B002BF9D185E7022087E7AE
:1035C0000020014000230140B8010020074AD368D1
:1035D00023F4E0631B041B0C000200F4E0600343CF
:1035E00043F0BF6343F40033D360704700ED00E065
:1035F00000B5194BDB68C3F30223C3F1070CBCF120
:10360000040F28BF4FF0040C03F1040EBEF1060FA7
:1036100018D9033B4FF0FF3E0EFA0CFC21EA0C01D7
:1036200099400EFA03F322EA0303194300280BDB47
:103630000901C9B200F1604000F5614080F8001353
:103640005DF804FB0023E5E700F00F000901C9B2B3
:10365000024B1954F4E700BF00ED00E014ED00E068
:10366000002807DB00F01F02400901239340024AB3
:1036700042F82030704700BF00E100E00138B0F1AF
:10368000807F0BD24FF0E0235861054AF02182F889
:1036900023100020986107221A61704701207047AB
:1036A00000ED00E030B405682C6824F480242C6020
:1036B000046863608368402B05D0036899600368E1
:1036C000DA6030BC704703689A600368D960F8E735
:1036D00010B40368D9B210390C4AA2FB0142120996
:1036E0000B4CA25CC2655F2909D923F47F7323F0D8
:1036F000030304338365806D5DF8044B704723F446
:103700007F7323F003038365F5E700BFABAAAAAA82
:103710006C720108836A826992B9012B0AD0022B6C
:1037200002D00BB100207047C36A13F0807F28D10C
:1037300000207047C36AB3F1C07F24D000207047D7
:10374000B2F5005F09D0022B25D9032B25D1C36A1E
:1037500013F0807F23D100207047032B03D8DFE8CC
:1037600003F01404140A00207047C36A13F0807F2A
:103770000DD100207047C36AB3F1C07F09D000208B
:1037800070470120704701207047012070470120D9
:1037900070470120704701207047002070470120CA
:1037A0007047000070B50446FFF778FC002C5BD032
:1037B0000546002384F83430022384F8353022682B
:1037C000136823F00103136023681A6812F0010FD5
:1037D0000AD0FFF763FC431B052BF5D92023636553
:1037E000032084F8350070BD1A68204810406168D5
:1037F000A2680A43E1680A4321690A4361690A43EE
:10380000A1690A43E1690A43216A0A430243616AE2
:1038100004291ED01A602668756925F00705636AB9
:103820001D43042B07D1A36A1D43E36A1BB1204645
:10383000FFF770FF90B975612046FFF749FFE26D11
:103840003F239340836000206065012384F8353076
:10385000C9E7E16A206B01430A43DBE74023636564
:10386000012084F83500BEE70120BCE73F8010F05E
:1038700038B50446856D90F8340001282BD001201E
:1038800084F8340094F83500C0B2012804D0002335
:1038900084F83430022038BD022084F8350000203E
:1038A00060652046FFF7FEFEE26D3F239340AB606C
:1038B0002268136843F016031360236C23B1226857
:1038C000136843F0080313602268136843F0010390
:1038D00013600020DFE70220DDE70000F0B583B0D1
:1038E000044600230193724B1D68724BA3FB053500
:1038F000AD0A876D3E68C26D08239340334210D0F5
:1039000003681A6812F0040F0BD01A6822F0040240
:103910001A60C26D08239340BB60436D43F00103FE
:103920004365E26D01239340334209D02268526916
:1039300012F0800F04D0BB60636D43F00203636537
:10394000E26D04239340334209D02268126812F0DA
:10395000020F04D0BB60636D43F004036365E26D46
:1039600010239340334224D02268126812F0080FCB
:103970001FD0BB6023681A6812F4802F0DD01B681B
:1039800013F4002F04D1236C9BB12046984710E01C
:10399000A36C73B1204698470BE01A6812F4807F3D
:1039A00003D11A6822F008021A60236C0BB120467A
:1039B0009847E26D20239340334255D02268126825
:1039C00012F0100F50D0BB6094F83530DBB2052BED
:1039D0000ED023681A6812F4802F33D01B6813F4BA
:1039E000002F2AD1636C002B3ED0204698473BE045
:1039F0002268136823F0160313602268536923F0CA
:103A000080035361236CA3B12268136823F0080379
:103A10001360E26D3F239340BB60002384F8343091
:103A2000012384F83530236D002B3FD02046984782
:103A30003CE0A36C002BE7D1EBE7E36BA3B120469E
:103A4000984711E01A6812F4807F09D11A6822F0B1
:103A500010021A60002384F83430012384F83530D2
:103A6000E36B0BB120469847636DFBB1636D13F0B8
:103A7000010F17D0052384F835302268136823F02E
:103A800001031360019B01330193AB4204D8236807
:103A90001B6813F0010FF5D1002384F834300123A3
:103AA00084F83530E36C0BB12046984703B0F0BD85
:103AB000B8010020B5814E1B00230F2B00F2C880F7
:103AC000F0B583B03AE0042200E00022AA4032437D
:103AD0000234604D45F824205F4A14686FEA0C02F6
:103AE00024EA0C054E6816F4803F01D04CEA040528
:103AF000594C2560646802EA04054E6816F4003FDC
:103B000001D04CEA0405544C6560A46802EA04053F
:103B10004E6816F4801F01D04CEA04054E4CA56097
:103B2000E46822404D6815F4001F01D04CEA0402FD
:103B3000494CE26001330F2B00F2888001229A4049
:103B40000C6804EA020C32EA0404F3D14C68651EE6
:103B5000012D03D9112C01D0122C12D185685E00E1
:103B60000324B44025EA0405CC68B4402C438460A7
:103B7000456825EA02054C68C4F300129A402A43BE
:103B80004260C5684FEA430E032404FA0EF4E24390
:103B900025EA04058C6804FA0EF42C43C4604C68D2
:103BA000022C01D0122C0FD1DD08083550F82570F9
:103BB00003F00704A6000F24B44027EA04070C69A9
:103BC000B4403C4340F82540046814404A6802F081
:103BD000030202FA0EF2224302604A6812F0805F8A
:103BE000A8D0002201921D4A546C44F480445464CD
:103BF000526C02F480420192019A9C08A51C154A5D
:103C000052F8256003F0030295000F22AA4026EA2D
:103C10000206134A90423FF458AF02F58062904288
:103C20000ED002F5806290420CD002F58062904284
:103C30000AD002F5806290423FF445AF072245E783
:103C4000012243E7022241E703223FE703B0F0BD30
:103C5000704700BF00380140003C0140003802407E
:103C6000000002400369194201D001207047002082
:103C700070470AB1816170470904816170474369E7
:103C800031EA030301D08161704709048161704703
:103C900003685A6912F4806F01D1002070476FF4F5
:103CA00080625A6100230363202280F83D2080F85F
:103CB0003E30026C42F00402026480F83C30012085
:103CC00070472DE9F04107460D4690461E4624E018
:103CD000FFF7E4F9069BC01AB04200D8EEB9002302
:103CE0003B63202287F83D2087F83E303A6C42F053
:103CF00020023A6487F83C3001201EE03B689C6952
:103D000025EA040C1FFA8CFCBCFA8CFC4FEA5C1C04
:103D1000E04511D1B6F1FF3FDAD1C5F30743012BDE
:103D2000ECD13B685B6925EA030C1FFA8CFCBCFAFA
:103D30008CFC4FEA5C1CEBE70020BDE8F0812DE92C
:103D4000F04105460E46174698463DE01A6842F493
:103D500000721A602B686FF480625A6100232B6333
:103D6000202285F83D2085F83E302A6C42F004027E
:103D70002A6485F83C30012034E0FFF78FF9A0EB8E
:103D80000800B84200D8FFB900232B63202285F831
:103D90003D2085F83E302A6C42F020022A6485F8E6
:103DA0003C3001201EE02B689C6926EA0404A4B282
:103DB000003C18BF0124A4B12B685A6912F4806F2B
:103DC000C4D1B7F1FF3FD8D1C6F30743012BEAD1E5
:103DD0002B685C6926EA0404A4B2003C18BF0124E5
:103DE000E9E70020BDE8F08170B504460D461646AF
:103DF00023685B6913F0800F1CD12046FFF748FF52
:103E0000D0B9B5F1FF3FF3D0FFF748F9801BA842C6
:103E100001D8002DECD100232363202284F83D201B
:103E200084F83E30226C42F02002226484F83C3058
:103E3000012000E0002070BD0120FCE72DE9F043E7
:103E400085B004460D4691461F46DDF830800D9E34
:103E50000368196841F48071196000964346002296
:103E60004FF00111FFF72DFF60B9236805F0FE0543
:103E70001D613346424626492046FFF760FF68B180
:103E8000012008E023681B6813F4807F02D04FF400
:103E900000732364032005B0BDE8F083002303937F
:103EA00023685A6903929B690393039B32464146F8
:103EB0002046FFF799FF30B9012F0FD123685FFA31
:103EC00089F61E61E7E7236C042B01D00120E2E7AD
:103ED0002268136843F400731360F7E723684FEA1E
:103EE00019221A61324641462046FFF77DFF20B96C
:103EF00023685FFA89F61E61CDE7236C042B01D09D
:103F00000120C8E72268136843F400731360F7E7E1
:103F1000020001002DE9F04784B004460D46164624
:103F200099460C9FDDF834800268136843F480637F
:103F300013600368196841F480711960CDF800803E
:103F40003B4600224FF00111FFF7BBFE70B95FFA4C
:103F500085FA236805F0FE051D6143463A4641494E
:103F60002046FFF7ECFE68B1012008E023681B68DB
:103F700013F4807F02D04FF400732364032004B055
:103F8000BDE8F0870023039323685A6903929B6975
:103F90000393039B424639462046FFF725FF80B92D
:103FA000B9F1010F18D12368F6B21E6142463946B5
:103FB0002046FFF719FF68B3236C042B24D001209F
:103FC000DDE7236C042B01D00120D8E722681368B9
:103FD00043F400731360F7E72368320A1A6142461C
:103FE00039462046FFF700FF18B92368F6B21E6174
:103FF000DCE7236C042B01D00120C0E722681368A2
:1040000043F400731360F7E72268136843F4007306
:104010001360D4E72268136843F480731360CDF80B
:1040200000803B4600224FF001112046FFF749FE79
:1040300068B922684AF00103136143463A460949C8
:104040002046FFF77CFE002899D0012097E72368DF
:104050001B6813F4807F02D04FF4007323640320A5
:104060008DE700BF0200010070B504460D461646FC
:1040700023685B6913F0040F1CD12046FFF708FE8C
:10408000D0B9B5F1FF3FF3D0FFF708F8801BA84285
:1040900001D8002DECD100232363202284F83D2099
:1040A00084F83E30226C42F02002226484F83C30D6
:1040B000012000E0002070BD0120FCE770B505463E
:1040C0000C4616462B68596911F0400F29D15969E1
:1040D00011F0100F15D1FEF7E1FF801BA04201D8AF
:1040E000002CEFD100232B63202285F83D2085F89A
:1040F0003E302A6C42F020022A6485F83C300120D0
:1041000070BD6FF010025A6100232B63202285F8E6
:104110003D2085F83E302A6C2A6485F83C30012029
:10412000EEE70020ECE70000002800F0CC8070B53E
:10413000044690F83D30002B77D0242384F83D309E
:104140002268136823F0010313602268136843F4A4
:10415000004313602268136823F40043136001F0E6
:104160009FFB62685A4B9A4264D85A4B98428CBF64
:1041700000230123002B40F0A8805749A1FB003108
:104180008B0C25686A6822F03F0242EA91426A601D
:1041900021680A6A22F03F0266684D4DAE424FD850
:1041A000013313430B622168CA6922F44F4222F0A3
:1041B000FF026668464B9E424CD8431E7600B3FB16
:1041C000F6F3013340F6FC70034278D0C3F30B03DF
:1041D0001343CB6121680B6823F0C003E269206AB6
:1041E000024313430B6021688B6823F4034323F0DD
:1041F000FF032269E068024313438B602168CB68A8
:1042000023F0FF036269A06902431343CB60226875
:10421000136843F00103136000202064202384F816
:104220003D30206384F83E0070BD80F83C30FEF7DE
:1042300049F882E7294B98428CBF0023012399E774
:104240004FF4967505FB03F3254DA5FB03539B091E
:104250000133A6E7A368BBB9451E06EB460CB5FBC8
:10426000FCF50135C5F30B05B5FA85F56D0945BBC0
:10427000C3B9013806EB4603B0FBF3F30133C3F3D4
:104280000B0343F40043A3E7451E06EB860C0CEB3F
:104290008C0CB5FBFCF50135C5F30B05B5FA85F5BE
:1042A0006D09E4E7013806EB860303EB8303B0FBFB
:1042B000F3F30133C3F30B0343F4404388E70423D0
:1042C00086E7012384E7012070470120ACE700BFA7
:1042D000A08601007F841E0083DE1B43FF083D0093
:1042E000D34D62102DE9F04383B004460F4690464B
:1042F00099460C9EFEF7D2FE054694F83D00C0B2EA
:10430000202803D0022003B0BDE8F08300951923D4
:1043100001224B492046FFF7D4FC002840F0898059
:1043200094F83C30012B00F08680012384F83C3067
:1043300023681A6812F0010F03D11A6842F00102D3
:104340001A602268136823F400631360212384F841
:104350003D30402384F83E30002323640A9B63628F
:10436000BDF82C306385638D2385364BE362019560
:1043700000964B46424639462046FFF75FFD00282F
:104380005BD1238D002B35D02A4631462046FFF7DE
:104390002BFD20BB626A236812781A61626A531C83
:1043A0006362218D013989B22185638D9BB2013B06
:1043B0009BB263852368586910F0040FE1D000298F
:1043C000DFD052781A61636A01336362238D013B47
:1043D0002385638D9BB2013B9BB26385D1E7236C40
:1043E000042B01D001208EE72268136843F4007388
:1043F0001360F7E72A4631462046FFF735FE50B1F5
:10440000236C042B01D001207DE72268136843F45C
:1044100000731360F7E72268136843F400731360B6
:10442000202384F83D30002384F83E3084F83C306B
:1044300069E7022067E7022065E7012063E700BF24
:10444000020010000000FFFF2DE9F04387B0044692
:104450000F4690469946109EFEF720FE054694F8BA
:104460003D00C0B2202804D00227384607B0BDE87E
:10447000F08300951923012288492046FFF721FC8B
:10448000002840F0438194F83C30012B00F040813B
:10449000012384F83C3023681A6812F0010F03D11D
:1044A0001A6842F001021A602268136823F400635C
:1044B0001360222384F83D30402384F83E300023EB
:1044C00023640E9B6362BDF83C306385638D238556
:1044D000734BE362019500964B46424639462046AF
:1044E000FFF718FD0746002840F01481238D5BB9C3
:1044F000029323685A6902929A690292029A1A6890
:1045000042F400721A6075E0012B0AD0022B1AD017
:104510000023059323685A6905929B690593059BBF
:1045200068E02268136823F4806313600023039318
:1045300023685A6903929A690392039A1A6842F4AB
:1045400000721A6056E02268136823F480631360D7
:104550002268136843F40063136000230493236804
:104560005A6904929B690493049B43E02A463146AE
:104570002046FFF7A3FD002840F0CE8023681A698B
:10458000636A1A70636A01336362238D013B23857A
:10459000638D9BB2013B9BB263852BE00095334654
:1045A000002240492046FFF78CFB002840F0B680EF
:1045B0002268136843F40073136023681A69636AFE
:1045C0001A70626A531C6362238D013B2385638DDD
:1045D0009BB2013B9BB2638523681B695370636A7E
:1045E00001336362238D013B2385638D9BB2013BC5
:1045F0009BB26385238D002B7FD0032B54D8012BD6
:10460000B4D0022BCAD0009533460022254920465B
:10461000FFF757FB002840F083802268136823F4DB
:104620008063136023681A69636A1A70636A0133CE
:104630006362238D013B2385638D9BB2013B9BB25B
:10464000638500953346002216492046FFF739FB63
:10465000002867D12268136843F40073136023684D
:104660001A69636A1A70626A531C6362238D013B84
:104670002385638D9BB2013B9BB2638523681B69D5
:104680005370636A01336362238D013B2385638D1D
:104690009BB2013B9BB26385ACE700BF02001000F8
:1046A0000000FFFF040001002A4631462046FFF7C4
:1046B00005FD002838D123681A69636A1A70626A96
:1046C000531C6362238D013B2385638D9BB2013BA9
:1046D0009BB263852368596911F0040F8AD01B6966
:1046E0005370636A01336362238D013B2385638DBD
:1046F0009BB2013B9BB263857CE7202384F83D306D
:10470000002384F83E3084F83C30AEE60227ACE665
:104710000227AAE60127A8E60127A6E60127A4E6C4
:104720000127A2E60127A0E601279EE62DE9F04336
:1047300083B0D0F80080C1EBC10300EB83035A6D56
:104740001B6D9A4254D807460C469B1AC1EBC10216
:1047500000EB8202526C9A4200D31A4602F103091E
:104760004FEA990915E006F103094FEA9909C4EBEC
:10477000C40507EB8505A96C3B7C0093B3B2E2B29C
:10478000404602F075FCAB6C3344AB646B6D334454
:104790006B6508EB441303F510639B699BB24B45B3
:1047A00012D3C4EBC40207EB8202516D136D994220
:1047B0000AD24BB15B1AC4EBC40207EB8202566CFF
:1047C0009E42D0D31E46CEE7C4EBC40007EB800761
:1047D0003A6D7B6D9A420FD804F00F040123A34079
:1047E000D8F8344824EA0304C8F83448002000E02C
:1047F000012003B0BDE8F0830020FAE770B58AB06D
:10480000002800F090800546046890F8BD333BB363
:10481000032385F8BD33E36B13F4807F01D10023BC
:104820002B61286802F0B0F92C4654F8106BEC4666
:104830000FCCACE80F000FCCACE80F0094E80300FD
:104840008CE803002B1D0ECB304602F0DFF8044647
:1048500058B1022385F8BD33012420460AB070BD4B
:1048600080F8BC3306F0B6FED2E70021286802F0DB
:1048700091F9234616E0C3EBC30205EB8202012146
:1048800082F83D1082F83C30A2F84230002182F8D4
:104890003F1051649164C3EBC30205EB82021165C2
:1048A0000133DBB269688B42E5D316E0C4EBC40385
:1048B00005EB8303002283F8FD2183F8FC4183F894
:1048C000FF21C3F80422C3F80822C4EBC40305EB9C
:1048D0008303C3F810220134E4B2A142E6D82C4687
:1048E00054F8106BEC460FCCACE80F000FCCACE8E2
:1048F0000F0094E803008CE803002B1D0ECB30461C
:1049000002F08EF9044620B1022385F8BD3301245C
:10491000A3E7002385F83830012385F8BD332868E4
:1049200002F062FD99E7012497E7026890F8BC3332
:10493000012B19D010B50446012380F8BC33836ADB
:10494000012B09D0206802F019F9206802F03EFD21
:10495000002084F8BC0310BD8369012BF2D0936B57
:1049600043F480339363EDE70220704770B504464B
:104970000D460068066C00EB411303F530639A683E
:104980002169012911D034498E424ED03DB9C5EB81
:10499000C50304EB8303D3F81032002B56D0E9B2E1
:1049A000204606F061FE002070BD12F0080F09D00D
:1049B0002A498E42F7D912F4004FF4D04FF4004246
:1049C0009A60F0E712F0200F02D020229A60EAE706
:1049D00012F0280FE7D121498E4206D912F4004F78
:1049E00003D04FF400429A60DDE7C5EBC50204EB4B
:1049F0008202D2F804121B69C3F31203CB1AC2F865
:104A00001432D2F808320B44C2F8083215B9D2F881
:104A1000103223B1E9B2204606F026FEC3E704F5C2
:104A20007172012102F034FDF4E712F4004F03D05B
:104A30004FF400429A60B6E712F0200F01D0202216
:104A40009A60E9B2204606F00FFEACE704F57172F9
:104A5000002102F01DFDA2E70A31544F0A30544FE5
:104A600038B5044603681D6C03EB4113D3F8081BEB
:104A70000E4A954207D903F5306311F4004F02D076
:104A80004FF400429A60204606F0E6FD074B9D4237
:104A900002D92369012B01D0002038BD04F57172C1
:104AA0000121206802F0F4FCF6E700BF0A30544F01
:104AB0002DE9F84F04460568284602F0D4FC08B1F9
:104AC000BDE8F88F0646206802F09CFC0028F7D06D
:104AD000206802F097FC10F0020F04D0226853699E
:104AE00003F002035361206802F08CFC10F0100FF9
:104AF00013D02268936923F0100393612F6A07F0A3
:104B00000F08C7F34343022B68D0062B00F08480C4
:104B10002268936943F010039361206802F072FCED
:104B200010F4002F40F08A80206802F06BFC10F433
:104B3000802F40F0CC80206802F064FC0028C0F296
:104B40003681206802F05EFC10F4006F0AD0D5F8C0
:104B5000083813F0010F40F044812268536903F4D0
:104B600000635361206802F04DFC10F4805F40F058
:104B70003C81206802F046FC10F4005F40F0918117
:104B8000206802F03FFC10F0080F40F0A28120687E
:104B900002F038FC10F4801F40F0A481206802F07D
:104BA00031FC10F4001F40F0A781206802F02AFCBD
:104BB00010F0804F40F0AA81206802F023FC10F032
:104BC000040F3FF47DAF23685D6815F0040F40F0DB
:104BD000A681226853682B43536071E747F6F07350
:104BE0001F4295D04FEA171BC8EBC80904EB89098F
:104BF000C7F30A12D9F80812284602F06DFBCBF36E
:104C00000A02D9F808321344C9F80832D9F8143224
:104C10001A44C9F814227BE7082204F5717128466A
:104C200002F05AFBC7F30A17C8EBC80204EB820272
:104C3000D2F814321F44C2F8147269E7206802F0F7
:104C4000E5FB0746B04616E005EB48130122C3F822
:104C5000082B41462046FFF789FE1BE005EB481371
:104C60000822C3F8082B41462046FFF7F9FE14E05E
:104C700008F101087F08002F3FF456AF17F0010F2D
:104C8000F6D05FFA88F1206802F0D0FB814610F080
:104C9000010FD9D119F0080FE0D119F0100F04D08D
:104CA00005EB48131022C3F8082B19F0200F04D08D
:104CB00005EB48132022C3F8082B19F4005FD7D066
:104CC00005EB48134FF40052C3F8082BD0E72068D7
:104CD00002F0A4FB0746B04629E05146204606F004
:104CE000CFFC19F0080F04D005EB48130822C3F8D5
:104CF000082919F0100F04D005EB48131022C3F84F
:104D0000082919F0400F04D005EB48134022C3F8DE
:104D1000082919F0020F04D005EB48130222C3F84A
:104D2000082919F0800F3DD108F101087F08002FF4
:104D30003FF401AF17F0010FF6D05FFA88FA514641
:104D4000206802F07CFB814610F0010FC9D008F00A
:104D50000F03012101FA03F2D5F8343823EA0203E4
:104D6000C5F8343805EB4813C3F8081923698B429A
:104D7000B3D1C8EBC80304EB8303596C9A6C0A44A3
:104D80009A64B8F1000FA8D1C8EBC80304EB830301
:104D90001B6D002BA1D104F571720121206802F076
:104DA00077FB9AE741462046FFF7C0FCBCE7D5F801
:104DB000043823F00103C5F8043894F8F433012BC8
:104DC00008D0204606F098FC2268536903F000439F
:104DD0005361B6E6002184F8F413204600F060FA2F
:104DE000F2E7204606F070FCB7E605F500677B6841
:104DF00023F001037B601021206801F0E3FE20E036
:104E000005EB46134FF67F31C3F80819D3F8002994
:104E100022F40012C3F80029D3F8002942F00062FE
:104E2000C3F80029C3F8081BD3F8002B22F40012A2
:104E3000C3F8002BD3F8002B42F00062C3F8002B1C
:104E400001366368B342DBD8FB6943F00113FB61B1
:104E5000236BDBB1D7F8843043F00B03C7F8843001
:104E60007B6C43F00B037B64D5F8003823F4FE63BE
:104E7000C5F8003804F57172217C206802F008FB47
:104E80002268536903F48053536172E67B6943F4EB
:104E9000005343F02B037B613B6943F00B033B6101
:104EA000E2E7206802F0E3FA206801F081FFE060A9
:104EB000256800F0EFFC0146227B284601F0ECFD5E
:104EC000204606F0EEFB2268536903F40053536159
:104ED00056E6204606F0DFFB2268536903F008031C
:104EE000536154E60021204606F012FC2268536903
:104EF00003F48013536151E60021204606F002FCC2
:104F00002268536903F4001353614EE6204606F00D
:104F100005FC2268536903F0804353614CE6204648
:104F200006F002FC55E690F8BC33012B0DD010B50D
:104F30000446012380F8BC3380F83810006802F082
:104F400035FA002084F8BC0310BD0220704738B544
:104F500005468C4611F0800F29D101F00F0ECEEBE3
:104F6000CE04A40004F5FC740444211DCEEBCE0E47
:104F700000EB8E0E00208EF8FD010CF00F0C81F876
:104F800000C08A60CB704A780AB1A1F806C0022B33
:104F90001DD095F8BC33012B1CD0012385F8BC3300
:104FA000286801F016FF002085F8BC0338BD01F029
:104FB0000F00C0EBC0018900383129440431C0EB37
:104FC000C00005EB8000012480F83D40D5E70023B8
:104FD0000B71DEE70220E9E710B504460A4611F03E
:104FE000800F20D101F00F00C0EBC0039B0003F540
:104FF000FC732344191DC0EBC00004EB80000023A8
:1050000080F8FD3102F00F020A7094F8BC33012BD6
:1050100019D0012384F8BC33206801F029FF002057
:1050200084F8BC0310BD01F00F00C0EBC0039B006F
:1050300038332344191DC0EBC00004EB800001236A
:1050400080F83D30DEE70220ECE710B501F00F04F8
:10505000C4EBC401890001F5FC7101440431C4EBC7
:10506000C40C00EB8C0CCCF80822CCF810320023D6
:10507000CCF814328CF8FD318CF8FC410369012B1B
:1050800006D064B9DAB2006801F062FF002010BDFA
:10509000C4EBC40C00EB8C0CCCF80C22F1E7DAB2B8
:1050A000006801F0FDFFF1E701F00F01C1EBC10164
:1050B00000EB8101D1F81402704710B501F00F0424
:1050C000C4EBC4018900383101440431C4EBC40C81
:1050D00000EB8C0CCCF84820CCF850300023CCF8F6
:1050E000543001238CF83D308CF83C400369012B8F
:1050F00006D064B9DAB2006801F02AFF002010BDC2
:10510000C4EBC40C00EB8C0CCCF84C20F1E7DAB209
:10511000006801F0C5FFF1E738B501F00F054268FE
:10512000954239D804460B4611F0800F1FD1C1EBD0
:10513000C101890001F5FC7101440431C3EBC303D3
:1051400000EB8303002283F8FD2101238B700D7097
:1051500094F8BC33012B21D0012384F8BC332068A0
:1051600002F0C9F88DB1002084F8BC0338BDC5EB4E
:10517000C5018900383101440431C5EBC50300EB9A
:105180008303012283F83D20DFE704F57172217C5F
:10519000206802F07DF9E6E70120E7E70220E5E775
:1051A00001F00F034268934231D810B5044611F064
:1051B000800F1ED1C3EBC301890001F5FC710144CE
:1051C0000431C3EBC30200EB8202002082F8FD0130
:1051D00000228A700B7094F8BC33012B19D0012384
:1051E00084F8BC33206802F0B3F8002084F8BC03D4
:1051F00010BDC3EBC3018900383101440431C3EB56
:10520000C30200EB8202012082F83D00E0E70120AA
:1052100070470220ECE790F8BC33012B14D010B596
:105220000446012380F8BC3311F0800F06D10068DA
:1052300001F0DCFC002084F8BC0310BD01F00F017C
:10524000006801F0BFFCF5E70220704710B4046865
:10525000606A31B940EA0240A06200205DF8044B68
:1052600070478C46A36A00EB1340002308E003F16B
:10527000400104EB8101496800EB11400133DBB2CE
:105280000CF1FF318B42F2D340EA02400CF13F01B6
:1052900004EB81014860E0E7036859620020704731
:1052A00070470000002800F0DA8170B582B0044633
:1052B000036813F0010F3BD09F4B9B6803F00C0376
:1052C000042B2CD09C4B9B6803F00C03082B21D0A3
:1052D0006368B3F5803F4FD0B3F5A02F52D0964B03
:1052E0001A6822F480321A601A6822F480221A6046
:1052F0006368002B50D0FDF7D1FE05468E4B1B682E
:1053000013F4003F14D1FDF7C9FE401B6428F5D902
:105310000320ABE1884B5B6813F4800FD8D0864B39
:105320001B6813F4003F03D06368002B00F09981E1
:10533000236813F0020F54D07F4B9B6813F00C0FBF
:105340003ED07D4B9B6803F00C03082B33D0E36801
:10535000002B68D0794B01221A60FDF79FFE0546AD
:10536000754B1B6813F0020F54D1FDF797FE401BDD
:105370000228F5D9032079E16F4A136843F480339A
:105380001360B5E76C4B1A6842F480221A601A6801
:1053900042F480321A60ABE7FDF780FE0546664BAB
:1053A0001B6813F4003FC3D0FDF778FE401B642850
:1053B000F5D903205AE1604B5B6813F4800FC6D126
:1053C0005D4B1B6813F0020F03D0E368012B40F024
:1053D0004A81594A136823F0F803216943EAC1035B
:1053E0001360236813F0080F42D063696BB3534B0B
:1053F0000122C3F8802EFDF751FE05464E4B5B6F30
:1054000013F0020F34D1FDF749FE401B0228F5D9F5
:1054100003202BE1484A136823F0F803216943EA8B
:10542000C1031360DDE7454B00221A60FDF736FE2D
:105430000546414B1B6813F0020FD2D0FDF72EFE3C
:10544000401B0228F5D9032010E13C4B0022C3F891
:10545000802EFDF723FE0546374B5B6F13F0020FDE
:1054600006D0FDF71BFE401B0228F5D90320FDE006
:10547000236813F0040F77D02F4B1B6C13F0805F61
:1054800033D1002301932C4B1A6C42F080521A64E2
:105490001B6C03F080530193019B0125284B1B6873
:1054A00013F4807F23D0A368012B34D0052B38D090
:1054B000214B1A6F22F001021A671A6F22F00402C0
:1054C0001A67A368002B3DD0FDF7E8FD06461A4B8E
:1054D0001B6F13F0020F46D1FDF7E0FD801B41F278
:1054E00088339842F3D90320C0E00025D6E7144A58
:1054F000136843F480731360FDF7D0FD0646104B2C
:105500001B6813F4807FCED1FDF7C8FD801B0228F5
:10551000F5D90320AAE0084A136F43F0010313678B
:10552000CFE7054B1A6F42F004021A671A6F42F078
:1055300001021A67C5E700BF003802400000474279
:1055400000700040FDF7AAFD06464F4B1B6F13F09D
:10555000020F08D0FDF7A2FD801B41F2883398426C
:10556000F3D9032082E0E5B9A369002B7DD0464A38
:10557000926802F00C02082A51D0022B17D0434B3C
:1055800000221A66FDF78AFD04463F4B1B6813F0A4
:10559000007F42D0FDF782FD001B0228F5D90320D1
:1055A00064E0394A136C23F080531364DCE7374B13
:1055B00000221A66FDF772FD0546334B1B6813F097
:1055C000007F06D0FDF76AFD401B0228F5D90320B5
:1055D0004CE0E369226A1343626A43EA8213A26AD7
:1055E0005208013A43EA0243E26A43EA0263264A66
:1055F0005360264B01221A66FDF750FD0446224BEC
:105600001B6813F0007F06D1FDF748FD001B022840
:10561000F5D903202AE0002028E0002026E0012B15
:1056200026D0194B5B6803F48001E269914221D1D5
:1056300003F03F02216A8A421ED1616A47F6C072B6
:105640001A408A421AD103F44032A16A8A4217D121
:1056500003F07063E26A934214D1002006E0012057
:105660007047012002E0012000E0002002B070BD80
:105670000120FBE70120F9E70120F7E70120F5E72A
:105680000120F3E70120F1E7003802400000474223
:1056900008B5254B9B6803F00C03042B3FD0082B67
:1056A0003FD1214B5A6802F03F025B6813F4800F30
:1056B00012D01D4B5968C1F388111C480023A1FB6F
:1056C0000001FBF781FA184B5B68C3F30143013318
:1056D0005B00B0FBF3F025E0134B5968C1F3881C65
:1056E0004FEA4C11B1EB0C006EEB0E0E4FEA8E132D
:1056F00043EA90638101091A63EB0E03DB0043EA7E
:105700005173C90011EB0C0C43F100039902002303
:105710004FEA8C2041EA9C51FBF756FAD3E7034845
:1057200000E0034808BD00BF0038024040787D011A
:105730000024F400002800F09B8070B50D4604465C
:105740004F4B1B6803F00F038B4208D2CBB24C4A7D
:105750001370136803F00F038B4240F08B802368B3
:1057600013F0020F17D013F0040F04D0454A9368CA
:1057700043F4E0539360236813F0080F04D0414AC8
:10578000936843F4604393603E4A936823F0F003C8
:10579000A1680B439360236813F0010F32D0636854
:1057A000012B21D09A1E012A25D9364A126812F0FF
:1057B000020F61D033498A6822F0030213438B60E1
:1057C000FDF76CFC06462F4B9B6803F00C036268E8
:1057D000B3EB820F16D0FDF761FC801B41F28833DA
:1057E0009842F0D9032042E0264A126812F4003FA2
:1057F000E0D101203BE0234A126812F0007FD9D1AA
:10580000012034E01E4B1B6803F00F03AB4207D9A5
:10581000EAB21B4B1A701B6803F00F03AB422DD189
:10582000236813F0040F06D0164A936823F4E0535C
:10583000E1680B439360236813F0080F07D0114A07
:10584000936823F46043216943EAC1039360FFF73F
:105850001FFF0C4B9B68C3F303130B4AD35CD84068
:105860000A4B18600A4B1868FDF7CCFB002070BD8E
:10587000012070470120FAE70120F8E70120F6E750
:10588000003C02400038024054720108B801002078
:10589000C0010020014B1868704700BFB80100200C
:1058A00008B5FFF7F7FF044B9B68C3F38223034A55
:1058B000D35CD84008BD00BF0038024064720108C4
:1058C00008B5FFF7E7FF044B9B68C3F34233034A75
:1058D000D35CD84008BD00BF0038024064720108A4
:1058E0002DE9F0410646884617461D463468A468EF
:1058F00038EA04030CBF4FF0010C4FF0000CBC451C
:1059000037D0B5F1FF3FF1D0FDF7C8FB069BC01AB9
:10591000A84201D2002DE9D13268536823F0E00398
:1059200053607368B3F5827F0BD0B36AB3F5005F41
:1059300014D0012386F85130002386F8503003201C
:1059400018E0B368B3F5004F02D0B3F5806FECD127
:105950003268136823F040031360E6E73268136887
:1059600023F4005313603268136843F40053136048
:10597000DFE70020BDE8F08110B584B00446164B87
:105980001868164BA3FB0030400D4FF47A7303FBED
:1059900000F003906368B3F5827F0BD0039BBBB12B
:1059A000039B013B039323689B6813F0800FF5D1A1
:1059B00000200EE000920B46002280212046FFF7D7
:1059C0008FFF30B1636D43F020036365032000E077
:1059D000002004B010BD00BFB8010020819F5E16FA
:1059E00000283BD010B504460023836290F8513064
:1059F000002B2ED0022384F851302268136823F044
:105A0000400313606368A2681343E268134322698A
:105A1000134362691343A26902F400721343E269FB
:105A20001343226A1343A16A22680B431360638BFA
:105A300003F00403616A22680B4353602268D36950
:105A400023F40063D36100206065012384F85130A2
:105A500010BD80F85030FCF7F5FFCBE70120704710
:105A60002DE9F04383B01D4690F85030012B00F033
:105A7000CC80044688469146012380F85030FDF7DB
:105A80000DFB074694F85160F6B2012E40F0AA8053
:105A9000B8F1000F00F0A780B9F1000F00F0A3806B
:105AA000032384F8513000236365C4F83080A4F8E0
:105AB0003490A4F83690A363A387E38763642364D8
:105AC000A368B3F5004F1ED023681A6812F0400F88
:105AD00003D11A6842F040021A60E368B3F5006F20
:105AE00017D0636813B1B9F1010F4DD1226B236850
:105AF00012781A73236B01332363E38E9BB2013B4D
